21:33:08.810009 IP6 fe80::4d59:e789:421:edec > ff02::1:ff62:2956: ICMP6, neighbor solicitation, who has fe80::866:dc45:4f62:2956, length 32
	0x0000:  6000 0000 0020 3aff fe80 0000 0000 0000  `.....:.........
	0x0010:  4d59 e789 0421 edec ff02 0000 0000 0000  MY...!..........
	0x0020:  0000 0001 ff62 2956 8700 9d79 0000 0000  .....b)V...y....
	0x0030:  fe80 0000 0000 0000 0866 dc45 4f62 2956  .........f.EOb)V
	0x0040:  0101 0a00 2700 0016                      ....'...
21:33:11.774034 IP6 fe80::4d59:e789:421:edec > ff02::1:ff62:2956: ICMP6, neighbor solicitation, who has fe80::866:dc45:4f62:2956, length 32
	0x0000:  6000 0000 0020 3aff fe80 0000 0000 0000  `.....:.........
	0x0010:  4d59 e789 0421 edec ff02 0000 0000 0000  MY...!..........
	0x0020:  0000 0001 ff62 2956 8700 9d79 0000 0000  .....b)V...y....
	0x0030:  fe80 0000 0000 0000 0866 dc45 4f62 2956  .........f.EOb)V
	0x0040:  0101 0a00 2700 0016                      ....'...
21:33:12.309254 IP6 fe80::4d59:e789:421:edec > ff02::1:ff62:2956: ICMP6, neighbor solicitation, who has fe80::866:dc45:4f62:2956, length 32
	0x0000:  6000 0000 0020 3aff fe80 0000 0000 0000  `.....:.........
	0x0010:  4d59 e789 0421 edec ff02 0000 0000 0000  MY...!..........
	0x0020:  0000 0001 ff62 2956 8700 9d79 0000 0000  .....b)V...y....
	0x0030:  fe80 0000 0000 0000 0866 dc45 4f62 2956  .........f.EOb)V
	0x0040:  0101 0a00 2700 0016                      ....'...
21:33:13.309027 IP6 fe80::4d59:e789:421:edec > ff02::1:ff62:2956: ICMP6, neighbor solicitation, who has fe80::866:dc45:4f62:2956, length 32
	0x0000:  6000 0000 0020 3aff fe80 0000 0000 0000  `.....:.........
	0x0010:  4d59 e789 0421 edec ff02 0000 0000 0000  MY...!..........
	0x0020:  0000 0001 ff62 2956 8700 9d79 0000 0000  .....b)V...y....
	0x0030:  fe80 0000 0000 0000 0866 dc45 4f62 2956  .........f.EOb)V
	0x0040:  0101 0a00 2700 0016                      ....'...
21:33:17.773714 IP6 fe80::4d59:e789:421:edec > ff02::1:ff62:2956: ICMP6, neighbor solicitation, who has fe80::866:dc45:4f62:2956, length 32
	0x0000:  6000 0000 0020 3aff fe80 0000 0000 0000  `.....:.........
	0x0010:  4d59 e789 0421 edec ff02 0000 0000 0000  MY...!..........
	0x0020:  0000 0001 ff62 2956 8700 9d79 0000 0000  .....b)V...y....
	0x0030:  fe80 0000 0000 0000 0866 dc45 4f62 2956  .........f.EOb)V
	0x0040:  0101 0a00 2700 0016                      ....'...
21:33:18.308139 IP6 fe80::4d59:e789:421:edec > ff02::1:ff62:2956: ICMP6, neighbor solicitation, who has fe80::866:dc45:4f62:2956, length 32
	0x0000:  6000 0000 0020 3aff fe80 0000 0000 0000  `.....:.........
	0x0010:  4d59 e789 0421 edec ff02 0000 0000 0000  MY...!..........
	0x0020:  0000 0001 ff62 2956 8700 9d79 0000 0000  .....b)V...y....
	0x0030:  fe80 0000 0000 0000 0866 dc45 4f62 2956  .........f.EOb)V
	0x0040:  0101 0a00 2700 0016                      ....'...
21:33:19.308919 IP6 fe80::4d59:e789:421:edec > ff02::1:ff62:2956: ICMP6, neighbor solicitation, who has fe80::866:dc45:4f62:2956, length 32
	0x0000:  6000 0000 0020 3aff fe80 0000 0000 0000  `.....:.........
	0x0010:  4d59 e789 0421 edec ff02 0000 0000 0000  MY...!..........
	0x0020:  0000 0001 ff62 2956 8700 9d79 0000 0000  .....b)V...y....
	0x0030:  fe80 0000 0000 0000 0866 dc45 4f62 2956  .........f.EOb)V
	0x0040:  0101 0a00 2700 0016                      ....'...
21:33:22.341597 IP kali.43211 > google-public-dns-a.google.com.domain: 11606+ A? www.ibm.com. (29)
	0x0000:  4500 0039 4509 0000 4011 628f c0a8 0264  E..9E...@.b....d
	0x0010:  0808 0808 a8cb 0035 0025 d352 2d56 0100  .......5.%.R-V..
	0x0020:  0001 0000 0000 0000 0377 7777 0369 626d  .........www.ibm
	0x0030:  0363 6f6d 0000 0100 01                   .com.....
21:33:22.387084 IP google-public-dns-a.google.com.domain > kali.43211: 11606 5/0/0 CNAME www.ibm.com.cs186.net., CNAME www2.ibm.com.edgekey.net., CNAME www2.ibm.com.edgekey.net.globalredir.akadns.net., CNAME e2874.dscx.akamaiedge.net., A 104.112.153.29 (209)
	0x0000:  4500 00ed 241e 0000 3f11 83c6 0808 0808  E...$...?.......
	0x0010:  c0a8 0264 0035 a8cb 00d9 a352 2d56 8180  ...d.5.....R-V..
	0x0020:  0001 0005 0000 0000 0377 7777 0369 626d  .........www.ibm
	0x0030:  0363 6f6d 0000 0100 01c0 0c00 0500 0100  .com............
	0x0040:  000d 5600 1703 7777 7703 6962 6d03 636f  ..V...www.ibm.co
	0x0050:  6d05 6373 3138 3603 6e65 7400 c029 0005  m.cs186.net..)..
	0x0060:  0001 0000 001a 0017 0477 7777 3203 6962  .........www2.ib
	0x0070:  6d03 636f 6d07 6564 6765 6b65 79c0 3bc0  m.com.edgekey.;.
	0x0080:  4c00 0500 0100 004f 4700 2e04 7777 7732  L......OG...www2
	0x0090:  0369 626d 0363 6f6d 0765 6467 656b 6579  .ibm.com.edgekey
	0x00a0:  036e 6574 0b67 6c6f 6261 6c72 6564 6972  .net.globalredir
	0x00b0:  0661 6b61 646e 73c0 3bc0 6f00 0500 0100  .akadns.;.o.....
	0x00c0:  0003 8300 1805 6532 3837 3404 6473 6378  ......e2874.dscx
	0x00d0:  0a61 6b61 6d61 6965 6467 65c0 3bc0 a900  .akamaiedge.;...
	0x00e0:  0100 0100 0000 1300 0468 7099 1d         .........hp..
21:33:22.389526 IP kali.37368 > google-public-dns-a.google.com.domain: 34101+ AAAA? e2874.dscx.akamaiedge.net. (43)
	0x0000:  4500 0047 450a 0000 4011 6280 c0a8 0264  E..GE...@.b....d
	0x0010:  0808 0808 91f8 0035 0033 d360 8535 0100  .......5.3.`.5..
	0x0020:  0001 0000 0000 0000 0565 3238 3734 0464  .........e2874.d
	0x0030:  7363 780a 616b 616d 6169 6564 6765 036e  scx.akamaiedge.n
	0x0040:  6574 0000 1c00 01                        et.....
21:33:22.477836 IP google-public-dns-a.google.com.domain > kali.37368: 34101 2/0/0 AAAA 2600:1402:19:2a6::b3a, AAAA 2600:1402:19:296::b3a (99)
	0x0000:  4500 007f 241f 0000 3f11 8433 0808 0808  E...$...?..3....
	0x0010:  c0a8 0264 0035 91f8 006b 3d73 8535 8180  ...d.5...k=s.5..
	0x0020:  0001 0002 0000 0000 0565 3238 3734 0464  .........e2874.d
	0x0030:  7363 780a 616b 616d 6169 6564 6765 036e  scx.akamaiedge.n
	0x0040:  6574 0000 1c00 01c0 0c00 1c00 0100 0000  et..............
	0x0050:  1300 1026 0014 0200 1902 a600 0000 0000  ...&............
	0x0060:  000b 3ac0 0c00 1c00 0100 0000 1300 1026  ..:............&
	0x0070:  0014 0200 1902 9600 0000 0000 000b 3a    ..............:
21:33:22.480863 IP kali.45216 > google-public-dns-a.google.com.domain: 58641+ MX? e2874.dscx.akamaiedge.net. (43)
	0x0000:  4500 0047 450c 0000 4011 627e c0a8 0264  E..GE...@.b~...d
	0x0010:  0808 0808 b0a0 0035 0033 d360 e511 0100  .......5.3.`....
	0x0020:  0001 0000 0000 0000 0565 3238 3734 0464  .........e2874.d
	0x0030:  7363 780a 616b 616d 6169 6564 6765 036e  scx.akamaiedge.n
	0x0040:  6574 0000 0f00 01                        et.....
21:33:22.512356 IP google-public-dns-a.google.com.domain > kali.45216: 58641 0/1/0 (107)
	0x0000:  4500 0087 2420 0000 3f11 842a 0808 0808  E...$...?..*....
	0x0010:  c0a8 0264 0035 b0a0 0073 5148 e511 8180  ...d.5...sQH....
	0x0020:  0001 0000 0001 0000 0565 3238 3734 0464  .........e2874.d
	0x0030:  7363 780a 616b 616d 6169 6564 6765 036e  scx.akamaiedge.n
	0x0040:  6574 0000 0f00 01c0 1200 0600 0100 0003  et..............
	0x0050:  e700 3406 6e30 6473 6378 c017 0a68 6f73  ..4.n0dscx...hos
	0x0060:  746d 6173 7465 7206 616b 616d 6169 0363  tmaster.akamai.c
	0x0070:  6f6d 0058 df03 6300 0003 e800 0003 e800  om.X..c.........
	0x0080:  0003 e800 0007 08                        .......
