21:13:25.078999 IP kali > 172.16.137.135: ICMP echo request, id 3098, seq 1, length 64
	0x0000:  4500 0054 30a6 4000 4001 115f c0a8 0264  E..T0.@.@.._...d
	0x0010:  ac10 8987 0800 1a86 0c1a 0001 b5fe de58  ...............X
	0x0020:  0000 0000 7d34 0100 0000 0000 1011 1213  ....}4..........
	0x0030:  1415 1617 1819 1a1b 1c1d 1e1f 2021 2223  .............!"#
	0x0040:  2425 2627 2829 2a2b 2c2d 2e2f 3031 3233  $%&'()*+,-./0123
	0x0050:  3435 3637                                4567
21:13:30.086137 ARP, Request who-has gateway tell kali, length 28
	0x0000:  0001 0800 0604 0001 0800 27fa 6b9b c0a8  ..........'.k...
	0x0010:  0264 0000 0000 0000 c0a8 0201            .d..........
21:13:30.089430 ARP, Reply gateway is-at 08:00:27:11:50:9e (oui Unknown), length 46
	0x0000:  0001 0800 0604 0002 0800 2711 509e c0a8  ..........'.P...
	0x0010:  0201 0800 27fa 6b9b c0a8 0264 0000 0000  ....'.k....d....
	0x0020:  0000 0000 0000 0000 0000 0000 0000       ..............
